:100000000C94EF000C94610D0C943A0D0C94D70CE9
:100010000C94740C0C94030C0C9417010C94201980
:100020000C9417010C9417010C9417010C94E11A0D
:100030000C9417010C9417010C9417010C941701E0
:100040000C948F270C9417010C94C8190C94A219C6
:100050000C9417010C9417010C9417010C941701C0
:100060000C9417010C941701C201E50102026C0205
:10007000FD0265037F039603240471043B05AE066D
:100080005107660869086C086F08720875087808D7
:100090007B087E088108840887088A088D089008F4
:1000A0009308960899089C08C608C908CC08CF0888
:1000B000D208D508D808DB08DE08E108E408E7081C
:1000C000EA08A40AA70AAA0AB30AB60ABF0AE50AF6
:1000D000EC0AF90A080B130B240B2B0B320B3F0B0A
:1000E0004A0B4D0B560B590B620B940B491D6C1DA3
:1000F000911DBF1DD61DED1D101E3C1E6B1E9A1EB0
:10010000C91EF31E181F461F711F881FC91FE01F3D
:10011000F71F05A84CCDB2D44EB93836A9020C5001
:10012000B9918688083CA6AAAA2ABE000000803F92
:1001300000000000250028002B0002000000002322
:100140000026002900000102030405060700010241
:100150000304050001020304050404040404040468
:100160000402020202020203030303030301020466
:100170000810204080010204081020010204081029
:1001800020252500452000262600252500442000A6
:100190002626002525004E20002626002525004283
:1001A000200026260025250049200026260025259A
:1001B00000410026260025250046002626000000D6
:1001C0000000240027002A000000000800020100AF
:1001D000000304070000000000000000C22E1124EC
:1001E0001FBECFEFD8E0DEBFCDBF12E0A0E0B1E090
:1001F000E8E2FAE602C005900D92A63DB107D9F7F4
:1002000027E0A6EDB2E001C01D92AF3BB207E1F7D7
:1002100010E0CFEED0E004C02197FE010E94E1344F
:10022000CE3ED107C9F70E94BD280C9412350C941C
:1002300000002F923F924F925F926F927F928F9227
:100240009F92AF92BF92CF92DF92EF92FF920F9365
:100250001F93CF93DF93CDB7DEB7C058D1090FB648
:10026000F894DEBF0FBECDBF28E0E9E0F1E0DE018B
:10027000AF58BF4F01900D922A95E1F728E0E1E1D8
:10028000F1E0DE01A759BF4F01900D922A95E1F7E9
:1002900028E0E9E1F1E0DE01AF59BF4F01900D9296
:1002A0002A95E1F728E0E1E2F1E0DE01A75ABF4F2D
:1002B00001900D922A95E1F728E0E9E2F1E0DE01F4
:1002C000AF5ABF4F01900D922A95E1F728E0E1E384
:1002D000F1E0DE01A75BBF4F01900D922A95E1F797
:1002E00028E0E9E3F1E0DE01AF5BBF4F01900D9242
:1002F0002A95E1F728E0E1E4F1E0DE01D9960190EA
:100300000D922A95E1F728E0E9E4F1E0DE01D196CB
:1003100001900D922A95E1F728E0E1E5F1E0DE0198
:10032000999601900D922A95E1F728E0E9E5F1E030
:10033000DE01919601900D922A95E1F728E0E1E621
:10034000F1E0DE01599601900D922A95E1F728E03F
:10035000E9E6F1E0DE01519601900D922A95E1F770
:1003600028E0E1E7F1E0DE01199601900D922A956F
:10037000E1F78D30910508F008C6FC01EC5CFF4FF9
:100380000C94E1340EE110E022E330E040E050E074
:1003900064EA70ED84E294E40E9427136AE070E05E
:1003A00080E090E00E9460108DE090E00E94341D9B
:1003B00024E130E040E253E060E070E080E89FE359
:1003C0000E945A218DE090E015C16BE070E080E062
:1003D00090E00E9460108BE090E00E94341D6CE081
:1003E00070E080E090E00E94601064E170E084EFD3
:1003F00091E00E94DA226BE070E080E090E00E94E1
:1004000060103EC566E170E080E090E00E94601000
:10041000BE016F587F4F8CEB92E00E94C311A8EC95
:100420008A2E912CB4E1AB2EB12CC12CD12C1CE521
:10043000E12E1FE8F12E02E81FE320E030E84FE450
:1004400054E460E070E08CE594E40E94AF1568E14C
:1004500070E080E090E00E94601020E030E845E429
:1004600054E460E070E88FE494E40E94AF1567E123
:1004700070E080E090E00E94601020E030E049E30E
:1004800054E460E070E885E494E40E94AF1568E10C
:1004900070E080E090E00E94601020E030E04FE2E9
:1004A00054E460E070E089E394E40E94AF1567E1F2
:1004B00070E080E090E00E94601020E030E447E2CD
:1004C00054E460E070E08FE294E40E94AF1566E1CE
:1004D00070E080E090E0FEC1BE0167597F4F8CEB79
:1004E00092E00E94C311F4E06F2E712C40E050E0C6
:1004F00061E070E080E090E00E9426205AE0852EC6
:10050000912C6AE0A62EB12CC12CD12C18EBE12E37
:100510001EE1F12E05E81FE320E030E048E453E45B
:1005200060E070E088EC92E40E94AF1541E050E09A
:1005300061E070E080E090E00E94262020E030E062
:1005400046E953E460E070E088E493E40E94AF156C
:1005500042E050E061E070E080E090E00E94262000
:1005600020E030E04AEF53E460E070E086E993E495
:100570000E94AF1564EF71E080E090E00E94BB261E
:1005800041E050E061E070E080E090E00E942620D1
:1005900088248394912C20E030E04AE753E460E023
:1005A00070E088EC93E40E94AF1540E050E061E019
:1005B00070E080E090E00E94262020E030E048ECEF
:1005C00052E460E070E08AE793E40E94AF1564EFC4
:1005D00071E080E090E00E94BB2621E0621A710881
:1005E00009F084CF63E170E080E090E00E94601049
:1005F00089E090E00E94341DBAC4BE016F597F4F5C
:1006000084EF91E00E94C3116CE271E080E090E021
:100610000E94BB2663E170E080E090E00E946010E1
:1006200080E190E00E94341D60E170E080E090E0A5
:100630000E9460106AEF70E080E090E00E94BB26AC
:10064000BE01675A7F4F84EF91E00E94C3116CE2B4
:1006500071E080E090E00E94BB2663E170E080E002
:1006600090E00E94601081E190E00E94341D60E102
:1006700070E080E090E00E9460106AEF70E080E03F
:1006800090E00E94BB26BE016F5A7F4F84EF91E03D
:100690000E94C3116CE271E080E090E00E94BB26F2
:1006A00063E170E080E090E00E94601082E190E001
:1006B0000E94341D60E170E080E090E00E946010D4
:1006C0006CE271E080E090E050C4BE01675B7F4F58
:1006D0008CE291E00E94C31164E170E080E090E060
:1006E0000E9460108FE090E00E94341D64EF71E082
:1006F00080E090E00E94BB260E94FB1240C46DE0A7
:1007000070E080E090E00E94601089E090E00E943C
:10071000341D01E010E02FE030E04CED55E060E0EA
:1007200070E080E090E40E94D92721C4BE016F5B95
:100730007F4F8CE291E00E94C3116EE170E080E097
:1007400090E00E9460100EE110E024E630E040E00E
:1007500050E060E070E08CE594E40E94271314E020
:10076000812E912C07E0A02EB12CC12CD12C1CE5A0
:10077000E12E1FE8F12E02E81FE32FE135ED42E9FB
:1007800054E460E070E08CE594E40E94AF158824A6
:100790008394912C2AE0A22EB12CC12CD12C2CE5D3
:1007A0003FEF43EC54E46FE175ED82E994E40E947D
:1007B000AF1520E030E04CE554E46CE57FEF83ECCE
:1007C00094E40E94AF156FE070E080E090E00E943A
:1007D000BB2634E0832E912C44E1A42EB12CC12CF5
:1007E000D12C24EA30ED44E254E460E070E08CE582
:1007F00094E40E94AF1560E971E080E090E00E940F
:10080000BB26BE01675C7F4F88EC90E00E94C3115D
:100810002FE135ED42E954E460E070E08CE594E4CA
:100820000E94AF15BE016F5C7F4F88EC90E00E9484
:10083000C31124EA30ED44E254E460E070E08CE55A
:1008400094E40E94AF1593C36EE170E080E090E005
:100850000E946010F4E08F2E912CA4E1AA2EB12CFE
:10086000C12CD12C1CE5E12E1FE8F12E02E81FE37C
:100870002FE135ED42E954E460E070E08CE594E46A
:100880000E94AF1524EA30ED44E254E460E070E0E9
:100890008CE594E40E94AF156CE271E080E090E09A
:1008A0000E94BB2663E170E080E090E00E9460104F
:1008B00004E010E0BE01675D7F4F84E690E00E9497
:1008C000C3110E94FB1201501109A1F76EE170E003
:1008D00080E090E00E94601064EF71E080E090E0C2
:1008E00044C324E030E0EB963FAF2EAFEB9700E936
:1008F00011E0612C712CA30162E070E080E090E0D7
:100900000E942620C8018C599F4FED969FAF8EAF55
:10091000ED97B801110F880B990B0E940A331B0148
:100920002C01ED96EEADFFADED97BF01FF0F880BEB
:10093000990B0E940A339B01AC016AE0862E912C30
:100940007AE0A72EB12CC12CD12C18EBE12E1EE1A0
:10095000F12E05E81FE3C201B1010E94AF15FFEFC0
:100960006F1A7F0AED960EAD1FADED9726E0621669
:10097000710409F684EE93E00E94FA1918EBE12E57
:100980001EE1F12E05E81FE320E030E849E854E4D9
:10099000C201B1010E94AF1598EE492E93E0592E85
:1009A000612C712CA30162E070E080E090E00E9475
:1009B0002620B2016C597F4F072E000C880B990B33
:1009C0000E940A339B01AC01B201052C000C880B7C
:1009D000990BEE962FAFEE97EF963FAFEF97C1587A
:1009E000DF4F4883CF57D040C058DF4F5883C0589F
:1009F000D0400E940A33FAE08F2E912CAAE0AA2E52
:100A0000B12CC12CD12C18EBE12E1EE1F12E05E802
:100A10001FE3EE962FADEE97EF963FADEF97C158DF
:100A2000DF4F4881CF57D040C058DF4F5881C05862
:100A3000D0400E94AF1534E6431A51088FEF681A70
:100A4000780A96E06916710409F0ACCFEB96EEAD2A
:100A5000FFADEB973197EB96FFAFEEAFEB97EF2B38
:100A600009F045CF84EE93E00E94FA1964E670E045
:100A700080E090E082C2A2E02A2E312CF4EF4F2ECB
:100A800055245394612C712CA30163E070E080E045
:100A900090E00E942620B2016C597F4F072E000C77
:100AA000880B990B0E940A339B01AC01B201052C03
:100AB000000C880B990BEE962FAFEE97EF963FAF99
:100AC000EF97C158DF4F4883CF57D040C058DF4F12
:100AD0005883C058D0400E940A334AE0842E912C9B
:100AE0005AE0A52EB12CC12CD12C1CE5E12E1FE81B
:100AF000F12E02E81FE3EE962FADEE97EF963FAD95
:100B0000EF97C158DF4F4881CF57D040C058DF4FD3
:100B10005881C058D0400E94AF1535E6430E511C95
:100B20008FEF681A780A9AE06916710409F0ACCF61
:100B300036EE432E35E0532E612C712CA30163E079
:100B400070E080E090E00E942620B2016C597F4F57
:100B5000072E000C880B990B0E940A339B01AC01F5
:100B6000B201052C000C880B990BEE962FAFEE9777
:100B7000EF963FAFEF97C158DF4F4883CF57D04034
:100B8000C058DF4F5883C058D0400E940A33AAE0B3
:100B90008A2E912CBAE0AB2EB12CC12CD12C1CE5A5
:100BA000E12E1FE8F12E02E81FE3EE962FADEE973F
:100BB000EF963FADEF97C158DF4F4881CF57D040F8
:100BC000C058DF4F5881C058D0400E94AF15E5E6AD
:100BD0004E0E511CFFEF6F1A7F0A2AE06216710455
:100BE00009F0ACCFF8ED4F2EF9E05F2E612C712C9F
:100BF000A30163E070E080E090E00E942620B20153
:100C000064567109072E000C880B990B0E940A3359
:100C10009B01AC01B201052C000C880B990BEE96E0
:100C20002FAFEE97EF963FAFEF97C158DF4F488356
:100C3000CF57D040C058DF4F5883C058D0400E9493
:100C40000A334AE0842E912C5AE0A52EB12CC12CF7
:100C5000D12C1CE5E12E1FE8F12E02E81FE3EE96F1
:100C60002FADEE97EF963FADEF97C158DF4F48811C
:100C7000CF57D040C058DF4F5881C058D0400E9455
:100C8000AF1535E6431A51088FEF681A780A9AE0D3
:100C90006916710409F0ACCF36EE432E35E0532EC1
:100CA000612C712CA30163E070E080E090E00E9471
:100CB0002620B20164567109072E000C880B990B8F
:100CC0000E940A339B01AC01B201052C000C880B79
:100CD000990BEE962FAFEE97EF963FAFEF97C15877
:100CE000DF4F4883CF57D040C058DF4F5883C0589C
:100CF000D0400E940A331AE0812E912C0AE0A02EE7
:100D0000B12CC12CD12C1CE5E12E1FE8F12E02E8FC
:100D10001FE3EE962FADEE97EF963FADEF97C158DC
:100D2000DF4F4881CF57D040C058DF4F5881C0585F
:100D3000D0400E94AF15E5E64E1A5108FFEF6F1A3A
:100D40007F0A2AE06216710409F0ACCF2A942328A6
:100D500009F488CE22242394312C90CE6FE070E0E9
:100D600080E090E00E94601040E4242E46E0342EA3
:100D70005AE5652E712C68E0B62ECE0101962C0145
:100D80007AE5E72EF12CE4EBCE2ED12CF2012B2DBF
:100D900011922A95E9F7FA82E982FC82EB827E823F
:100DA0006D82C6018619970998878F83B2018AE000
:100DB00090E00E94C311B101032C000C880B990B29
:100DC0000E940A3301E010E02FE030E040E050E004
:100DD0000E9427133FEF631A730A84E1280E311C27
:100DE00096E96916710491F66EE070E080E090E09B
:100DF0000E94601080EF282E8AE0382E98E0B92EED
:100E00002AE5E22EF12C34EBC32ED12CF2012B2D4E
:100E100011922A95E9F7FA82E982FC82EB827E82BE
:100E20006D82C6018619970998878F83B2018AE07F
:100E300090E00E94C311B101032C000C880B990BA8
:100E40000E940A3301E010E02FE030E040E050E083
:100E50000E94271331E0631A710884E1280E311CC7
:100E60009AE56916710491F66BE070E080E090E01D
:100E70000E94601064E170E084EF91E00E94DA2249
:100E80008CE090E00E94341D6CE070E080E090E027
:100E90000E94601064E170E084EF91E00E94DA2229
:100EA00066C067E170E080E090E00E946010BE01E3
:100EB0006F5D7F4F8CE291E00E94C31101E010E072
:100EC00028EC30E040E050E060E070E081E694E43F
:100ED0000E94271368E170E080E090E00E946010BB
:100EE000BE01675E7F4F8CE291E00E94C31128EC47
:100EF00030E040E050E060E070E086E194E40E9481
:100F0000271364E170E080E090E00E946010BE0171
:100F10006F5E7F4F8CE291E00E94C31128EC30E0BD
:100F200040E050E060E070E086E993E40E9427131F
:100F3000BE01675F7F4F8CE291E00E94C3116AE1BE
:100F400070E080E090E00E9460100E94EB1228E9BF
:100F500038E040E050E060E070E086E193E40E9419
:100F6000271368E572E080E090E00E94BB260E94B3
:100F7000FB1264EF71E080E090E00E94BB266BE022
:100F800070E080E090E00E946010C058DF4F0FB624
:100F9000F894DEBF0FBECDBFDF91CF911F910F91AF
:100FA000FF90EF90DF90CF90BF90AF909F908F9089
:100FB0007F906F905F904F903F902F90089581E0C9
:100FC0008093D9028093DB02089581E08093DA0256
:100FD0008093DB0208950E94D71B0E94FB120C94A1
:100FE000C11BEF92FF920F931F93CF93DF93CDB767
:100FF000DEB72C970FB6F894DEBF0FBECDBF0E94B0
:10100000D71B0E94FB1219821A821B821C82FE01CE
:10101000359687E0DF011D928A95E9F70E94D2227A
:10102000009729F1FC01CE0101967C019E01245F0D
:101030003F4FDC018191882329F0A217B30711F0FB
:101040008D93F8CF05E010E0D7016D917D01C801C7
:101050006C870E942E316C85681719F0C8010E94B8
:1010600036310F5F1F4F0031110571F706C060ED7B
:1010700077E080E090E00E94BB262C960FB6F894B3
:10108000DEBF0FBECDBFDF91CF911F910F91FF90BB
:10109000EF900C94C11B0E94D71B0E94FB120E9470
:1010A000D222009761F00E94D530019783319105DB
:1010B00008F046C08F5B9F4FFC010C94E13460ED5B
:1010C00077E080E090E00E94BB263AC080E090E0AC
:1010D00035C081E090E032C086E090E02FC087E02C
:1010E00090E02CC088E090E029C089E090E026C024
:1010F0008AE090E023C08BE090E020C08CE090E09C
:101100001DC08DE090E01AC08EE090E017C08FE027
:1011100090E014C080E190E011C081E190E00EC049
:1011200082E190E00BC083E090E008C084E090E0B2
:1011300005C085E090E002C082E090E00E94341D8E
:101140000C94C11B0E94D71B0E94FB120E94D2224A
:10115000009759F00E94D53001978D309105F0F538
:101160008C5A9F4FFC010C94E1346AE170E080E0FE
:1011700090E00E94601060ED77E080E090E00E94D7
:10118000BB2684EE93E00E94FA1928C080E090E02C
:1011900023C081E090E020C082E090E01DC083E0A9
:1011A00090E01AC084E090E017C085E090E014C0A1
:1011B00086E090E011C087E090E00EC088E090E00B
:1011C0000BC089E090E008C08AE090E005C08BE0A9
:1011D00090E002C08CE090E00E9419010C94C11BC9
:1011E0000E94D71B809115058111109215050E9450
:1011F000D222009739F00E94D5309093D702809385
:10120000D60214C06AE170E080E090E00E946010B5
:1012100060ED77E080E090E00E94BB2684EE93E0F2
:101220000E94FA191092D7021092D6020E94D2227E
:10123000009719F00E94D53002C088EE93E0909399
:101240000101809300010E94D222009719F00E94B0
:10125000D53002C08FE090E09093030180930201AB
:101260000895CF92DF92EF92FF920F931F93CF9347
:10127000DF930E94D71B0E94FB120E94D22200978C
:1012800029F00E94D5306C01C0E001C0C1E00E948D
:10129000D222009721F00E94D5307C0101C0C1E02C
:1012A0000E94D222009721F00E94D5308C0101C00B
:1012B000C1E00E94D222009721F00E94D530CC23B9
:1012C00089F06AE170E080E090E00E94601060EDDB
:1012D00077E080E090E00E94BB2684EE93E00E94DD
:1012E000FA191FC0D0924904C0924804F0927204C7
:1012F000E092710410939B0400939A049093C404A9
:101300008093C30408E414E0C0E0D0E0F8016081F9
:10131000CE010E9436312196075D1F4FC430D105A2
:10132000A9F7DF91CF911F910F91FF90EF90DF9080
:10133000CF900C94C11BAF92BF92CF92DF92EF92ED
:10134000FF921F93CF93DF93CDB7DEB728970FB6E9
:10135000F894DEBF0FBECDBF0E94D71B8EE190E098
:101360009093D7028093D6020E94D222009729F050
:101370000E94D5305C0110E001C011E00E94D22231
:10138000009721F00E94D5306C0101C011E00E944D
:10139000D222009721F00E94D5307C0101C011E0DB
:1013A0000E94D222009721F00E94D530112389F0AB
:1013B0006AE170E080E090E00E94601060ED77E00C
:1013C00080E090E00E94BB2684EE93E00E94FA1930
:1013D0000FC0BA82A982DC82CB82FE82ED8298871E
:1013E0008F83BE016F5F7F4F88EC90E00E94C31136
:1013F0000E94C11B28960FB6F894DEBF0FBECDBF6A
:10140000DF91CF911F91FF90EF90DF90CF90BF9031
:10141000AF900895EF92FF920F931F93CF93DF93B6
:1014200000D000D0CDB7DEB70E94D71B0E94FB12C0
:101430000E94D222009729F00E94D5307C0110E052
:1014400001C011E00E94D222009721F00E94D53005
:10145000112389F06AE170E080E090E00E94601062
:1014600060ED77E080E090E00E94BB2684EE93E0A0
:101470000E94FA1916C09C01990F440B550BB70135
:10148000FF0C880B990B29833A834B835C830E9462
:101490000A3301E010E029813A814B815C810E948E
:1014A00027130F900F900F900F90DF91CF911F9106
:1014B0000F91FF90EF900C94C11BCF93DF9300D05E
:1014C000CDB7DEB70E94D71B0E94FB120E94D2222A
:1014D000009751F042E050E0BE016F5F7F4F0E94E5
:1014E000C32F0E94C50F10C06AE170E080E090E059
:1014F0000E94601060ED77E080E090E00E94BB26E3
:1015000084EE93E00E94FA190E94C11B0F900F9085
:10151000DF91CF910895CF92DF92EF92FF920F93D8
:101520001F93CF93DF93CDB7DEB7A0970FB6F89494
:10153000DEBF0FBECDBF8531910508F034C1FC017F
:10154000EF59FF4F0C94E1340E94FB122AC161E075
:1015500070E002C06FEF7FEF809100019091010178
:101560000E9462251EC161E070E002C06FEF7FEF54
:1015700080910001909101010E940B2512C12091E0
:10158000020130910301C0900001D090010158E0A8
:10159000CE014996FC01452F11924A95E9F73E8FFD
:1015A0002D8F38A32F8FBE016F5E7F4FFB011192ED
:1015B0005A95E9F73E8B2D8B319521953109388F5E
:1015C0002F8B20E1E2E8F1E0A0C060910201709170
:1015D000030141E050E006C06091020170910301F7
:1015E0004FEF5FEF80910001909101010E94642410
:1015F000D8C0209102013091030140910001509127
:10160000010160E070E080E89FE30E945A21C9C0B8
:10161000209102013091030140910001509101019C
:1016200001E010E00AC020910201309103014091D5
:101630000001509101010FEF1FEF60E070E080E8C2
:101640009FE30E94D927ADC08091000190910101D4
:101650000E943D22A6C0609102017091030141E009
:1016600050E006C060910201709103014FEF5FEFFF
:1016700080910001909101010E94BF2392C060916E
:1016800002017091030180910001909101010E947B
:10169000DA2287C061E070E002C06FEF7FEF8091D7
:1016A0000001909101010E941A277BC061E070E067
:1016B00002C06FEF7FEF80910001909101010E94C5
:1016C000A6216FC0C0900001D090010120910201BD
:1016D000309103012A31310514F029E130E058E05E
:1016E000CE014996FC01452F11924A95E9F73A8FB0
:1016F000298F3C8F2B8FBE016F5E7F4FFB011192B4
:101700005A95E9F720E1E2E9F1E0DE011196019056
:101710000D922A95E1F7E12CF12C00E81FE39E01E0
:101720002F5F3F4FA6013BC0409100015091010146
:1017300080910201909103018E30910514F08DE0AB
:1017400090E09A8F898F9C8F8B8F9E8F8D8F98A31F
:101750008F8FBE016F5E7F4F28E0FB0111922A95AB
:10176000E9F79C012C5F3F4F3E8B2D8B24E030E04E
:10177000F901E81BF90BF88FEF8B80E1E2EAF1E069
:10178000DE01119601900D928A95E1F7E12CF12C82
:1017900000E81FE39E012F5F3F4FCE0149960E9454
:1017A000DE200E94C11BA0960FB6F894DEBF0FBECC
:1017B000CDBFDF91CF911F910F91FF90EF90DF9000
:1017C000CF9008950E94530F2AE330E040E050E0AC
:1017D0000E947631211531054105510521F427EE8E
:1017E00033E040E050E0CA01B9010E940A330E9490
:1017F000D2326431710524F481E08093D8020895D7
:101800001092D80208951F920F920FB60F921124D2
:101810002F933F934F935F936F937F938F939F93F8
:10182000AF93BF93CF93EF93FF9329B1C091F10290
:1018300090911F0380911C03322F309583239223B4
:10184000892B90916D00C227C923C8232093F102F0
:10185000CC23C1F1C0FF05C0E091F202F091F30288
:101860000995C1FF05C0E091F402F091F5020995D8
:10187000C2FF05C0E091F602F091F7020995C3FF9F
:1018800005C0E091F802F091F9020995C4FF05C086
:10189000E091FA02F091FB020995C5FF05C0E091C5
:1018A000FC02F091FD020995C6FF05C0E091FE0221
:1018B000F091FF020995C7FF05C0E0910003F09188
:1018C00001030995FF91EF91CF91BF91AF919F9146
:1018D0008F917F916F915F914F913F912F910F90D9
:1018E0000FBE0F901F9018951F920F920FB60F9278
:1018F00011242F933F934F935F936F937F938F9315
:101900009F93AF93BF93CF93EF93FF9326B1C09173
:1019100002039091200380911D03322F3095832381
:101920009223892B90916C00C227C923C82320934E
:101930000203CC2351F1C0FF05C0E0910303F091F5
:1019400004030995C1FF05C0E0910503F09106036A
:101950000995C2FF05C0E0910703F09108030995BE
:10196000C3FF05C0E0910903F0910A030995C4FF84
:1019700005C0E0910B03F0910C030995C5FF05C06C
:10198000E0910D03F0910E030995FF91EF91CF9136
:10199000BF91AF919F918F917F916F915F914F9187
:1019A0003F912F910F900FBE0F901F9018951F928F
:1019B0000F920FB60F9211242F933F934F935F9383
:1019C0006F937F938F939F93AF93BF93CF93EF9337
:1019D000FF9323B1C0910F039091210380911E03C7
:1019E000322F309583239223892B90916B00C2274D
:1019F000C923C82320930F03CC2351F1C0FF05C096
:101A0000E0911003F09111030995C1FF05C0E09129
:101A10001203F09113030995C2FF05C0E09114036E
:101A2000F09115030995C3FF05C0E0911603F091ED
:101A300017030995C4FF05C0E0911803F09119033D
:101A40000995C5FF05C0E0911A03F0911B030995A4
:101A5000FF91EF91CF91BF91AF919F918F917F9126
:101A60006F915F914F913F912F910F900FBE0F900B
:101A70001F9018951F920F920FB60F9211242F935B
:101A80003F934F935F936F937F938F939F93AF9306
:101A9000BF93EF93FF93E091EF02F091F00209956D
:101AA000FF91EF91BF91AF919F918F917F916F9136
:101AB0005F914F913F912F910F900FBE0F901F900C
:101AC00018951F920F920FB60F9211242F933F93E8
:101AD0004F935F936F937F938F939F93AF93BF9336
:101AE000EF93FF93E091ED02F091EE020995FF91E3
:101AF000EF91BF91AF919F918F917F916F915F9186
:101B00004F913F912F910F900FBE0F901F901895FE
:101B10004FB7F894282F2F7787FD05C08EEF820FDF
:101B2000823008F463C030E0F901E359FE4F84913C
:101B3000F901E75AFE4FE491E230E1F490916B0035
:101B4000E82FE0958E2F892380936B0080916B00A6
:101B5000811105C0809168008E7F8093680080911C
:101B600021038E238093210380911E03E823E093B9
:101B70001E0345C0E330E1F490916C00E82FE0953E
:101B80008E2F892380936C0080916C00811105C099
:101B9000809168008D7F80936800809120038E2360
:101BA0008093200380911D03E823E0931D0327C049
:101BB000E43029F590916D00E82FE0958E2F892370
:101BC00080936D0080916D00811105C08091680047
:101BD0008B7F8093680080911F038E2380931F0367
:101BE00080911C03E823E0931C0309C0223049F4D0
:101BF000E898809169008C7F80936900E09A4FBFDC
:101C00000895E99880916900837F80936900E19A43
:101C1000F6CF1F93CF93DF93EC019881292F30E00B
:101C2000F901EE0FFF1F2E0F3F1FF901E154FC4F8A
:101C3000808186FD83C0162F9C3008F04EC061E085
:101C4000812F0E941A268881E82FF0E09F01220F41
:101C5000331FE20FF31FE154FC4F1F736081607C60
:101C6000162B108319821A826CE00E94C1349CE00A
:101C7000899FB001112440E050E09A01260F371FE0
:101C8000F901EE0FFF1F2E0F3F1FF901E154FC4F2A
:101C9000908196FD16C04F5F5F4F4C30510569F73C
:101CA00081110FC01092800082E080938100109219
:101CB000850010928400B19A80916F0082608093B9
:101CC0006F00E881F0E0CF01880F991FE80FF91F3E
:101CD000E154FC4F8081806480836AE570E0CE012E
:101CE0000E945E1A8EE190E09E8F8D8F80ED97E0CE
:101CF00098878F8380E090E0A4E8B2E4898F9A8F80
:101D0000AB8FBC8F8AE198EFA2ECBDE38D8B9E8BED
:101D1000AF8BB88F1F8E18A219A21AA28DE290E085
:101D20009C838B83198A1A8A1B8A1C8A19861A86B5
:101D30001B861C861E821D821FA218A6DF91CF91D2
:101D40001F910895E82FEF7787FD05C08EEF8E0F66
:101D5000823008F47CC08E2F90E0FC01E359FE4FE6
:101D60002491FC01E75AFE4F3491323031F4409116
:101D70002103422B409321030FC0333031F44091B3
:101D80002003422B4093200307C0343029F44091B4
:101D90001F03422B40931F03FC01EB5BFE4FA491FA
:101DA0003230C1F4B0E0AA0FBB1FA05FBC4F6D93EF
:101DB0007C93EFE3F1E0A591B4918C9180930F03B4
:101DC0008BE690E09093B2078093B1078091680012
:101DD000816033C03330C1F4B0E0AA0FBB1FAD5FE8
:101DE000BC4F6D937C93E1E4F1E0A591B4918C91AB
:101DF000809302038CE690E09093B2078093B10742
:101E000080916800826019C03430C9F4B0E0AA0F34
:101E1000BB1FAE50BD4F6D937C93E3E4F1E0A59101
:101E2000B4918C918093F1028DE690E09093B2078B
:101E30008093B10780916800846080936800A091CE
:101E4000B107B091B207EC912E2B2C9316C09FB71F
:101E5000F894E230B1F47093EE026093ED02E898EA
:101E6000809169008C7F8093690080916900836014
:101E700080936900E09AE89A9FBF8FB780688FBF10
:101E800008957093F0026093EF02E99880916900E1
:101E9000837F80936900809169008C6080936900E2
:101EA000E19AE99AE9CF0F931F9360E08091DD04F6
:101EB0000E94CE2583E090E00197F1F761E08091E8
:101EC000DD040E94CE2583E290E00197F1F760E007
:101ED0008091DD040E94CE258091DF049091E00482
:101EE0009927FC01E359FE4F6491FC01E75AFE4F2C
:101EF000E491F0E0EE0FFF1FE55CFE4F85919491B9
:101F000000E41CE920E030E0462F0E9478286115AB
:101F100071058105910549F0DC01CB010196A11DF8
:101F2000B11DBC01CD019F7003C060E070E0CB012A
:101F30001F910F910895EF92FF920F931F93CF93EC
:101F4000DF93E82EF62EC7E0D0E0042F10E09801D2
:101F50000C2E02C0359527950A94E2F7B9016170FD
:101F600077278E2D0E94CE2561E08F2D0E94CE25F1
:101F700060E08F2D0E94CE25219748F7DF91CF9109
:101F80001F910F91FF90EF9008953F924F925F92B3
:101F90006F927F928F929F92AF92BF92CF92DF9279
:101FA000EF92FF920F931F93CF93DF932B013C018E
:101FB000A12CB12CEE24E394F12C81E090E0A0E080
:101FC000B0E00E2C04C0880F991FAA1FBB1F0A94F3
:101FD000D2F7882E382E3094C9EED3E000E010E01E
:101FE000C8018A0D9B1DA301920104C05695479517
:101FF000379527958A95D2F720FF03C088818829D5
:1020000002C088818321888360E08091E5030E947B
:10201000CE25C12CD12C82E0982E900E8091E70322
:1020200090E0C816D906F4F4C114D10449F4492D3E
:102030006091E6038091E4030E949B0F488108C0F1
:1020400040E06091E6038091E4030E949B0F40E032
:102050006091E6038091E4030E949B0F3FEFC31A57
:10206000D30ADCCF60E08091E5030E94CE2561E0D9
:102070008091E5030E94CE250F5F1F4F2196063009
:10208000110509F0ADCF4FEFE41AF40A56E0A50EA2
:10209000B11C86E0E816F10409F08FCFDF91CF91F3
:1020A0001F910F91FF90EF90DF90CF90BF90AF9076
:1020B0009F908F907F906F905F904F903F9008958A
:1020C0000F931F93CF93DF93CDB7DEB7CC58D109D1
:1020D0000FB6F894DEBF0FBECDBFFE0131962CE8DF
:1020E000DF011D922A95E9F70CE814E229E43CE0AF
:1020F00009831A832B833C830EE011E420E334E050
:102100000D831E832F8338870EE112E428E43CE020
:1021100009871A872B873C870CE814E428E43CE005
:102120000D871E872F87388B02E810EE29E432E1F5
:10213000098B1A8B2B8B3C8B0CE910EC21E43EE1D4
:102140000D8B1E8B2F8B388F0CE814EC21E234E0C2
:10215000098F1A8F2B8F3C8F00E112E428E03EE1BB
:102160000D8F1E8F2F8F38A30CE814EC28E43CE071
:1021700009A31AA32BA33CA30EE810EE28E43CE02D
:102180000DA31EA32FA338A700E013E225E830E03B
:1021900009A71AA72BA73CA700E013E22DEF30E018
:1021A0000DA71EA72FA738AB00E010EE2DEF30E0F3
:1021B00009AB1AAB2BAB3CAB0CE814E126EB32E1DC
:1021C0000DAB1EAB2FAB38AF0CE814E12AE43CE0BA
:1021D00009AF1AAF2BAF3CAF00E013EC20E030E0CA
:1021E00021960CAF1DAF2EAF3FAF219700E811E94C
:1021F00024E23FE325960CAF1DAF2EAF3FAF2597EE
:1022000000E814ED26EB3FE329960CAF1DAF2EAF8F
:102210003FAF299700E010E225EB3FE32D960CAF8E
:102220001DAF2EAF3FAF2D9700E010EF23E030E061
:1022300061960CAF1DAF2EAF3FAF619700E818E578
:1022400021E230E065960CAF1DAF2EAF3FAF659732
:1022500002E011E820E430E269960CAF1DAF2EAF2A
:102260003FAF699700E418E221E330E06D960CAFD0
:102270001DAF2EAF3FAF6D9700EC1FE221E330E0C2
:10228000A1960CAF1DAF2EAF3FAFA19700EC1CEE97
:1022900021E330E0A5960CAF1DAF2EAF3FAFA59761
:1022A00000E012E429E031E0A9960CAF1DAF2EAF9B
:1022B0003FAFA99701EA14EC28E431E2AD960CAFE8
:1022C0001DAF2EAF3FAFAD9704E011E428E43CE032
:1022D000E1960CAF1DAF2EAF3FAFE19700E112ECDE
:1022E00021E234E0E5960CAF1DAF2EAF3FAFE5978E
:1022F00000E814ED26E830E0E9960CAF1DAF2EAFF4
:102300003FAFE99700E418E12AE730E0ED960CAF23
:102310001DAF2EAF3FAFED97660F771F660F771F8C
:10232000E60FF71F6081718182819381C457DF4F6F
:102330000FB6F894DEBF0FBECDBFDF91CF911F91D6
:102340000F910C94C50F6091E1047091E20489E350
:1023500094E00E94090E6091E3047091E40482E627
:1023600094E00E94090E6091E5047091E6048BE808
:1023700094E00E94090E6091E7047091E80484EBF8
:1023800094E00C94090E2F923F924F925F926F92BD
:102390007F928F929F92AF92BF92CF92DF92EF92F5
:1023A000FF920F931F93CF93DF93CDB7DEB728979C
:1023B0000FB6F894DEBF0FBECDBF6C0178876F8378
:1023C0000E94A311809115058111109215058F812E
:1023D000988508961C019BE0C916D1040CF4C2C074
:1023E0000D2C000CEE08FF08C701B6010E940A334D
:1023F00020E030E040E251E40E9460324B015C0199
:102400000F81188525E0422E25E0522E31EF632EF4
:1024100034E0732EF801619171918F01F301819184
:1024200091913F01681B790B072E000C880B990BCB
:102430000E940A33A50194010E946032F201619367
:102440007193819391932F010215130519F70E943F
:102450008327C60ED71EE81EF91EC092FD04D09237
:10246000FE04E092FF04F092000544244394512CB2
:102470000E9483270091FD041091FE042091FF0427
:1024800030910005601771078207930708F07FC03D
:102490000E948327DC01CB010A96A11DB11D809308
:1024A000010590930205A0930305B093040509E389
:1024B00014E085E0682E85E0782E81EF94E09A8321
:1024C00089834201052C000CAA08BB08E981FA8126
:1024D00061917191FA83E983F301219131914191E5
:1024E00051913F01072E000C880B990B2B833C83E5
:1024F0004D835E830E940A336B017C01C501B401E8
:102500000E940A332B813C814D815E810E94BF3342
:102510009B01AC01C701B6010E94EF310E94D2328B
:10252000F80127853089620F731FC8010E945E1A67
:10253000075D1F4FF5E16F16F5E07F0639F60E9443
:102540008327009101051091020520910305309128
:102550000405601771078207930788F38FEF481A05
:10256000580A86CFEF80F88409E314E0F7016191FF
:1025700071917F01F80187859089680F791FC801E3
:102580000E945E1A075D1F4FE214F30479F7AF81D2
:10259000B885E1EFF4E08D919D9181939193A2151F
:1025A000B305C9F728960FB6F894DEBF0FBECDBFAE
:1025B000DF91CF911F910F91FF90EF90DF90CF901F
:1025C000BF90AF909F908F907F906F905F904F9053
:1025D0003F902F90089589E394E00E944E1A82E67E
:1025E00094E00E944E1A8BE894E00E944E1A84EB0D
:1025F00094E00C944E1ACF93DF93CDB7DEB72897B3
:102600000FB6F894DEBF0FBECDBF809115058111C6
:1026100015C088E0E2EBF1E0DE01119601900D9229
:102620008A95E1F7BE016F5F7F4F84EF91E00E94D2
:10263000C3110E94EB1281E08093150528960FB616
:10264000F894DEBF0FBECDBFDF91CF9108953F92CA
:102650004F925F926F927F928F929F92AF92BF92B2
:10266000CF92DF92EF92FF920F931F93CF93DF935E
:10267000CDB7DEB728970FB6F894DEBF0FBECDBF3B
:1026800029013A010115110511F401E010E0E09073
:10269000F904F090FA04209104012E1521F02F3F47
:1026A00009F0DEC104C0EAE3F1E0349081C0E092B9
:1026B0000401EAE3F1E0E491EF3F09F4D1C1E13034
:1026C00031F1E23009F44BC0E11171C014BC15BC0A
:1026D00024B5226024BD25B5216025BDA70155275D
:1026E000FA01E75AFE4FE491F0E0EE0FFF1FE05DC4
:1026F000FE4F259134913093A8072093A707FA0144
:10270000E359FE4FE491E093A607312C53C0109299
:102710008000109281002091810028602093810028
:1027200020918100216020938100A7015527FA01A3
:10273000E75AFE4FE491F0E0EE0FFF1FE05DFE4F21
:10274000259134913093A5072093A407FA01E3590A
:10275000FE4FE491E093A307332433942BC01092EF
:10276000B0001092B1002091B00022602093B00020
:102770002091B10021602093B100A7015527FA01F3
:10278000E75AFE4FE491F0E0EE0FFF1FE05DFE4FD1
:10279000259134913093E8022093E702FA01E3593E
:1027A000FE4FE491E093E602B2E03B2E03C03E2EE2
:1027B00037FC56C10E94D9326D837E838F83988700
:1027C00061E08E2D0E941A268D819E814C01A12CE4
:1027D000B12C832D8D7F09F0BBC060E072E18AE7E8
:1027E00090E0A50194010E94763129833A834B83BE
:1027F0005C8369017A0191E0C91AD108E108F10806
:10280000EFEFCE16D104E104F10409F008F44CC056
:1028100060E472E48FE090E0A50194010E947631BB
:1028200069017A01F1E0CF1AD108E108F10822E04C
:10283000321220C08FEFC816D104E104F10409F070
:1028400008F48BC160E970ED83E090E0A50194018C
:102850000E94763169017A0191E0C91AD108E10834
:10286000F108EFEFCE16D104E104F10409F0D0F540
:1028700083E067C0FFEFCF16D104E104F104B1F0AB
:10288000A8F068E478EE81E090E0A50194010E9450
:10289000763169017A0181E0C81AD108E108F108AE
:1028A000332009F438C12EC181E001C082E0332019
:1028B000A1F047C089819A81AB81BC812AE0B5959E
:1028C000A795979587952A95D1F76C017D01E1E051
:1028D000CE1AD108E108F10885E095B5987F892BDB
:1028E00085BD6FC068E478EE81E090E0A5019401B9
:1028F0000E94763169017A01E1E0CE1AD108E1083F
:10290000F108FFEFCF16D104E104F10409F008F457
:10291000C8C064E274EF80E090E0A50194010E94D9
:10292000763169017A0191E0C91AD108E108F1080C
:10293000EFEFCE16D104E104F10411F008F0B3C0BA
:1029400085E09091B100987F892B8093B10039C0C8
:1029500060E072E18AE790E0A50194010E9476317F
:1029600069017A0181E0C81AD108E108F108C114AF
:10297000D10491E0E906F10488F068E478EE81E0A2
:1029800090E0A50194010E94763169017A01E1E0AD
:10299000CE1AD108E108F10893E001C091E0F1E01E
:1029A0003F120FC080918100887F892B8093810026
:1029B000411451046104710449F42FEF3FEFA90160
:1029C0002EC0411451046104710479F0AD81BE81BF
:1029D000AA0FBB1FA30192010E94953128EE33E09C
:1029E00040E050E00E94543103C02FEF3FEFA901B7
:1029F00081E03816A1F092E0391619F1311030C09B
:102A0000C7BC2093AD073093AE074093AF075093F8
:102A1000B00780916E00826080936E0021C0D092DA
:102A20008900C09288002093A9073093AA07409399
:102A3000AB075093AC0780916F00826080936F006A
:102A40000FC0C092B3002093E9023093EA02409392
:102A5000EB025093EC0280917000826080937000D2
:102A6000C301B2010E94BB26B801110F880B990B5C
:102A700028960FB6F894DEBF0FBECDBFDF91CF9181
:102A80001F910F91FF90EF90DF90CF90BF90AF908C
:102A90009F908F907F906F905F904F903F900C949D
:102AA000BB2684E04ECF62E17AE780E090E0A501AA
:102AB00094010E94763169017A0181E0C81AD10837
:102AC000E108F1089FEFC916D104E104F104C1F057
:102AD000B8F089819A81AB81BC814AE0B595A79510
:102AE000979587954A95D1F76C017D01F1E0CF1A52
:102AF000D108E108F108332009F4EECE87E021CFB8
:102B000086E0D5CEEFEFCE16D104E104F10409F052
:102B100050F684E0CCCE8FEFC816D104E104F10466
:102B2000D1F0C8F062E17AE780E090E0A50194017D
:102B30000E94763169017A01F1E0CF1AD108E108EB
:102B4000F1082FEFC216D104E104F10411F008F0EE
:102B5000B1CE84E0C2CE83E0C0CE82E0F2CE4F920E
:102B60005F926F927F928F929F92AF92BF92CF921D
:102B7000DF92EF92FF920F931F93CF93DF93CDB726
:102B8000DEB728970FB6F894DEBF0FBECDBF2B017E
:102B90003C0129833A834B835C83ED82FE820F8361
:102BA00018878114910419F488248394912C298125
:102BB0003A814B815C81C301B2010E945B3287FF85
:102BC00024C0C301B2010E94D232072E000C880B30
:102BD000990B0E940A332B013C0129813A814B81D8
:102BE0005C810E945B3287FF34C08401A60195019D
:102BF000C301B2010E9427132D813E814F81588568
:102C0000C301B2010E94BF33DECFC301B2010E94F3
:102C1000D232072E000C880B990B0E940A332B012D
:102C20003C0129813A814B815C810E94BA3318169C
:102C300084F48401A6019501C301B2010E94271307
:102C40002D813E814F815885C301B2010E946032BF
:102C5000DECF28960FB6F894DEBF0FBECDBFDF9152
:102C6000CF911F910F91FF90EF90DF90CF90BF9089
:102C7000AF909F908F907F906F905F904F9008954E
:102C8000CF92DF92EF92FF920F931F93CF93DF9338
:102C90006C017A018B01C0E0D0E0CE15DF0589F030
:102CA000D8016D918D01D601ED91FC910190F081DB
:102CB000E02DC6010995892B11F47E0102C02196F1
:102CC000ECCFC701DF91CF911F910F91FF90EF9053
:102CD000DF90CF900895089580E090E00895FC0182
:102CE000538D448D252F30E0842F90E0821B930B71
:102CF000541710F0CF96089501970895FC01918D17
:102D0000828D981761F0828DDF01A80FB11D5D964D
:102D10008C91928D9F5F9F73928F90E008958FEFBB
:102D20009FEF0895FC01918D828D981731F0828D6F
:102D3000E80FF11D858D90E008958FEF9FEF0895C6
:102D4000FC01918D228D892F90E0805C9F4F821B2A
:102D500091098F739927089582E293E00E94A0164B
:102D600021E0892B09F420E0822F0895FC01848D55
:102D7000DF01A80FB11DA35ABF4F2C91848D90E0A5
:102D800001968F739927848FA689B7892C93A08980
:102D9000B1898C9180648C93938D848D981306C037
:102DA0000288F389E02D80818F7D80830895EF92E2
:102DB000FF920F931F93CF93DF93EC0181E0888FF5
:102DC0009B8D8C8D981305C0E889F989808185FDDC
:102DD00024C0F62E0B8D10E00F5F1F4F0F731127CD
:102DE000E02E8C8DE8120CC00FB607FCFACFE889F4
:102DF000F989808185FFF5CFCE010E94B616F1CF0B
:102E00008B8DFE01E80FF11DE35AFF4FF0820B8F0F
:102E1000EA89FB898081806207C0EE89FF8960832F
:102E2000E889F98980818064808381E090E0DF9186
:102E3000CF911F910F91FF90EF900895CF93DF9363
:102E4000EC01888D8823C9F0EA89FB89808185FDA2
:102E500005C0A889B9898C9186FD0FC00FB607FC03
:102E6000F5CF808185FFF2CFA889B9898C9185FF44
:102E7000EDCFCE010E94B616E7CFDF91CF91089536
:102E800080E090E0892B29F00E94AC1681110C940F
:102E9000000008950E94E734CF92DF92EF92FF92F4
:102EA0000F931F93CF93DF93CDB7DEB72B970FB65A
:102EB000F894DEBF0FBECDBF0E94FB1219821A82AA
:102EC0001B821C82FE01359687E0DF011D928A95E8
:102ED000E9F734977F0105E010E06F01C8010E9417
:102EE0002E31D7018D937D010F5F1F4F00311105EA
:102EF000A9F787E891E00E94AF2084E891E00E9462
:102F0000AF20C6010E949D2081E891E00E94D02060
:102F100082E293E00E941E172B960FB6F894DEBF54
:102F20000FBECDBFDF91CF911F910F91FF90EF901A
:102F3000DF90CF9008950E94FB128BEA91E00E94EF
:102F4000AF2088EA91E00E94AF208CEC91E00E94D3
:102F50009D2085EA91E00E94D02082E293E00C94CB
:102F60001E174F925F926F927F928F929F92AF92B5
:102F7000BF92CF92DF92EF92FF92CF93DF930E94A6
:102F8000FB120E946D26CAE0D0E0C12CD12C760144
:102F90000E946D269B01AC01C701B6010E94EF3172
:102FA0006B017C0161E070E080E090E00E94BB2654
:102FB000219771F720E030E040E251E4C701B6010B
:102FC0000E9460326B017C014B015C0182EA91E05E
:102FD0000E94AF208FE991E00E94AF20A7019601E7
:102FE000C701B6010E943434882319F086EC92E0C0
:102FF0001AC026013701E89477F82FEF3FEF4FE72B
:103000005FE7C301B2010E94343481110FC02FEF7A
:103010003FEF4FE75FE7C301B2010E945B32181632
:103020002CF48AEC92E00E949D2074C02FEF3FEFB9
:103030004FE75FE4C701B6010E94BA3318161CF4CB
:103040008EEC92E0F0CF2FEF3FEF4FE75FECC70140
:10305000B6010E945B3287FDF3CF20E030E0A9018A
:10306000C701B6010E945B3287FF09C08DE20E9452
:10307000862346015701B7FAB094B7F8B0942AE016
:1030800037ED43EA5BE3C501B4010E94EF314B0128
:103090005C010E94D9326B017C010E9408339B01C4
:1030A000AC01C501B4010E94EE314B015C014AE064
:1030B000C701B6010E9445238EE20E94862320E0CC
:1030C00030E040E251E4C501B4010E94BF334B013E
:1030D0005C010E94D9326B01E12CF12C4AE0C7015E
:1030E000B6010E944523C701B6010E9408339B0127
:1030F000AC01C501B4010E94EE3120E030E040E2B5
:1031000051E40E94BF330E94D93280E090E04AE04F
:103110000E9445238CE991E00E94D02082E293E056
:10312000DF91CF91FF90EF90DF90CF90BF90AF9065
:103130009F908F907F906F905F904F900C941E1790
:10314000CF93DF930E94FB120E94F526EC0189E9E0
:1031500091E00E94AF2086E991E00E94AF20CE016D
:103160000E94912383E991E00E94D02082E293E0C3
:10317000DF91CF910C941E17CF93DF9300D000D036
:10318000CDB7DEB70E94FB120E94530F2AE330E056
:1031900040E050E00E94763121153105410551058E
:1031A00021F427EE33E040E050E080E991E029830C
:1031B0003A834B835C830E94AF208DE891E00E94AC
:1031C000AF2029813A814B815C81CA01B9010E94FB
:1031D0000A330E94D232CB010E9491238AE891E007
:1031E0000E94D02082E293E00F900F900F900F90FA
:1031F000DF91CF910C941E17CF93DF9300D000D0B6
:10320000CDB7DEB7611571058105910579F09B0198
:10321000AC0169833A834B835C830E94B52F29817B
:103220003A814B815C810E94763103C060E070E09E
:10323000CB010F900F900F900F90DF91CF910895D9
:103240001F920F920FB60F9211242F933F934F931B
:103250005F936F937F938F939F93AF93BF93EF93FE
:10326000FF938091E9029091EA02A091EB02B09164
:10327000EC02892B8A2B8B2B59F18091E602E0918D
:10328000E702F091E8029081892780838091E9022A
:103290009091EA02A091EB02B091EC021816190687
:1032A0001A061B060CF03DC08091E9029091EA02DB
:1032B000A091EB02B091EC020197A109B1098093B2
:1032C000E9029093EA02A093EB02B093EC0229C0CA
:1032D00080910401EAE3F1E0E4919FEF909304010F
:1032E000E130B9F098F0E230C9F4909170009D7F20
:1032F0009093700091E09093B0009091B100987F0E
:1033000094609093B1001092B30008C010926E00C8
:1033100005C090916F009D7F90936F0060E00E94C8
:10332000CE25FF91EF91BF91AF919F918F917F91AA
:103330006F915F914F913F912F910F900FBE0F9022
:103340001F9018951F920F920FB60F9211242F9372
:103350003F934F935F936F937F938F939F93AF931D
:10336000BF93EF93FF9382E293E00E94B616FF9122
:10337000EF91BF91AF919F918F917F916F915F91ED
:103380004F913F912F910F900FBE0F901F90189566
:103390001F920F920FB60F9211242F938F939F932A
:1033A000EF93FF93E0913203F09133038081E0913A
:1033B0003803F091390382FD12C0908180913B0364
:1033C0008F5F8F7320913C03821751F0E0913B0394
:1033D000F0E0EE5DFC4F958F80933B0301C0808150
:1033E000FF91EF919F918F912F910F900FBE0F90B2
:1033F0001F9018959F92AF92BF92CF92DF92EF925B
:10340000FF920F931F93CF93DF93EC01E12CF12CEC
:103410008C010C5F1F4F60E089810E94CE2558010E
:10342000C12CD12C992493949E0C8B8190E0C816CA
:10343000D90694F4492D6A8188810E949B0F40E04F
:103440006A8188810E949B0FF5011082FFEFCF1ADD
:10345000DF0AAE0CBF1CE9CF60E089810E94CE2557
:1034600061E089810E94CE258FEFE81AF80AE8E032
:10347000EE16F10481F6F801CC5ADF4F1192EC17E9
:10348000FD07E1F7DF91CF911F910F91FF90EF9032
:10349000DF90CF90BF90AF909F900895DC01EC91AA
:1034A000F0E0CF01880F991FE80FF91FE154FC4F9E
:1034B000808186FF02C08F7B80830895CF92DF9248
:1034C000EF92FF92CF93DF93EC01603282E07807B6
:1034D0000CF03DC077FD06C0653B71052CF064EB38
:1034E00070E002C060E070E0898128E830E06901A6
:1034F000C81AD10887FDD394CC0CDD1CCC0CDD1C84
:103500000D2C000CEE08FF088A8128E532E0281B0C
:10351000310987FD3395220F331F220F331FC90155
:10352000330FAA0BBB0B9C01AD012C193D094E09B1
:103530005F09DB010E94A03124EB30E040E050E065
:103540000E947631C20ED31EE41EF51EB60188819C
:103550008C3080F5998148E850E0491B510997FD6E
:103560005395440F551F440F551F6417750784F07A
:103570009A8128E532E0291B310997FD3395220F06
:10358000331F220F331FAB01261737070CF4A90195
:1035900042505109440F551F2FB7F89490E0FC0199
:1035A000EE0FFF1F8E0F9F1FFC01E154FC4F528353
:1035B00041832FBFDF91CF91FF90EF90DF90CF90AD
:1035C00008951F920F920FB60F9211242F933F93DD
:1035D0004F935F936F937F938F939F93AF93BF931B
:1035E000EF93FF938091B30787FF05C0109285008A
:1035F000109284001BC02091B307022E000C330BE5
:103600008091E30390E02817390784F48091B30791
:10361000082E000C990BFC01EE0FFF1F8E0F9F1F51
:10362000FC01E154FC4F808186FD15C08091B307F9
:103630008F5F8093B3072091B307022E000C330BEA
:103640008091E30390E028173907C4F48091B30711
:103650008C3064F113C08091B307082E000C990BD5
:10366000FC01EE0FFF1F8E0F9F1FFC01E154FC4F6A
:10367000808160E08F730E94CE25D8CF8091840036
:1036800090918500049680349C4918F480E49CE96C
:1036900005C08091840090918500049690938900E4
:1036A000809388008FEF8093B3073BC02091840004
:1036B000309185008091B307082E000C990BFC0116
:1036C000EE0FFF1F8E0F9F1FFC01E154FC4F818105
:1036D0009281820F931F909389008093880080913C
:1036E000B307082E000C990BFC01EE0FFF1F8E0F85
:1036F0009F1FFC01E154FC4F808186FF12C0809126
:10370000B307082E000C990BFC01EE0FFF1F8E0F64
:103710009F1FFC01E154FC4F808161E08F730E9488
:10372000CE25FF91EF91BF91AF919F918F917F91A6
:103730006F915F914F913F912F910F900FBE0F901E
:103740001F901895EF92FF920F931F93CF93DF93E3
:103750001F92CDB7DEB78C017B01FB0160816983CD
:103760000E942E316981681719F0C8010E94363114
:10377000C7010F90DF91CF911F910F91FF90EF90B4
:1037800008956EE170E080E090E00E94BB268BEB34
:1037900091E00E94AF2089EB91E00E94AF2086EB80
:1037A00091E00E94D02082E293E00C941E176EE11B
:1037B00070E080E090E00E94BB2683EB91E00E94E5
:1037C000AF2081EB91E00E94AF208EEA91E00E9451
:1037D000D02082E293E00C941E172F923F924F92DA
:1037E0005F926F927F928F929F92AF92BF92CF9291
:1037F000DF92EF92FF920F931F93CF93DF9300D04E
:1038000000D0CDB7DEB71A01270138018B014C017A
:103810009CE3C92E94E0D92E59017B0188E0E80E83
:10382000F11CF801819191918F01F60193838283BC
:10383000F401819191914F01F6019183808335824A
:103840002482628D738DC1010E94CD3480E090E0AE
:103850000E9408339B01AC01F601668B778B808F49
:10386000918F6BED7FE089EC90E40E946032F6016D
:10387000628B738B848B958BF50181919191A191D2
:10388000B1915F01F60186839783A087B187F9E242
:10389000CF0ED11C0E151F0521F60E9483270E9412
:1038A00008336B017C01B101330C880B990B0E942A
:1038B0000A33A30192010E94BF33A70196010E941F
:1038C000EF314B015C01A5019401C701B6010E94D3
:1038D0005B3218160CF4B1C089E3282E84E0382E30
:1038E00000E010E00E948327F10163A374A385A385
:1038F00096A3C78CD0A0E1A0F2A02B013C014C18EC
:103900005D086E087F08C58CD68CE12CF12CC414A0
:10391000D504E604F7040CF080C0678F70A381A380
:1039200092A3C8018C519C4F7C01FC01E458FF4FCD
:103930008081811162C0F1012185328543855485E2
:1039400061897289838994890E94EF310E942C34A5
:103950009B01AC01F1016381748180E090E02983D7
:103960003A834B835C830E94083329813A814B81DF
:103970005C810E94BF332B013C01F101658176819E
:1039800080E090E00E9408339B01AC01C301B201CA
:103990000E94EF312B013C0120E030E0A9010E94A0
:1039A000BA3320E030E040E05FE387FD05C0C301AB
:1039B000B2010E94EF3104C0C301B2010E94EE3196
:1039C0000E94D232F10176876587F701E358FF4FF5
:1039D0008081882331F0719561957109F1017687B5
:1039E0006587F10165857685665A7F4F8785908961
:1039F000680F791FC1010E945E1AF101258936897D
:103A00004789508D61897289838994890E94EF3139
:103A1000F101618B728B838B948B075D1F4FF9E2F1
:103A20002F0E311C043A110509F05CCF0E94832748
:103A30000E9408336B017C0146CF0F900F900F90CE
:103A40000F90DF91CF911F910F91FF90EF90DF903A
:103A5000CF90BF90AF909F908F907F906F905F902E
:103A60004F903F902F9008958F929F92AF92BF9268
:103A7000CF92DF92EF92FF920F931F93CF93DF933A
:103A80008331910508F0D5C2FC01EA58FF4F0C9430
:103A9000E1340EE110E022E330E040E050E064EA7F
:103AA00070ED84E294E40E94271309E110E027E31B
:103AB00030E040E050E062E570ED84EA94E40E947A
:103AC00027130AE010E02CE330E040E050E060E033
:103AD00070E08CED94E422C00EE110E022E330E0CF
:103AE00040E050E064EA70ED84E294E40E94271321
:103AF00009E110E027E330E040E050E060E070E0F2
:103B00008CED94E40E9427130AE010E022E330E0F9
:103B100040E050E062E570ED84EA94E40E942713EF
:103B200088C292E0892E912C24E1A22EB12CC12CC6
:103B3000D12C1AE0E12E17EDF12E03E81FE32CE55E
:103B40003FEF43EC54E462E570ED84EA94E40E94B4
:103B5000AF156EE170E080E090E00E94BB264AE085
:103B6000A42EB12CC12CD12C18EBE12E1EE1F12E8C
:103B700005E81FE32FE135ED42E155E412C0CAE04C
:103B80008C2E912CDEE1AD2EB12CC12CD12C1CE55C
:103B9000E12E1FE8F12E02E81FE320E030E04CEDBB
:103BA00054E462E570ED84EA94E441C2FAE08F2EB9
:103BB000912CAEE1AA2EB12CC12CD12C1AE0E12E11
:103BC00017EDF12E03E81FE32FE135ED42E155E457
:103BD0006CE57FEF83EC94E42AC204E610E022E374
:103BE00030E040E050E062E570ED84EA94E40E9449
:103BF000271300E510E022E330E040E050E06CE500
:103C00007FEF83EC94E40E94271300E010E02CE2A5
:103C100031E040E050E06FE175ED82E195E47ECF68
:103C200088248394912C5AE0A52EB12CC12CD12C40
:103C30001CE5E12E1FE8F12E02E81FE320E030E64C
:103C400046E055E460E070E088E494E40E94AF153B
:103C500077E0A72EB12CC12CD12C1AE0E12E17ED64
:103C6000F12E03E81FE320E030E048E454E460E094
:103C700070E586E095E4DBC193E0892E912C28E085
:103C8000A22EB12CC12CD12C18EBE12E1EE1F12E6D
:103C900005E81FE320E030E04AEF54E460E070E024
:103CA0008CE594E40E94AF1568EC70E080E090E051
:103CB0000E94BB26C6E1D0E00AE010E025E030E03B
:103CC00040E050E068E471EF86E794E40E94271337
:103CD000219791F7AEC1C3E08C2E912CD8E0AD2E88
:103CE000B12CC12CD12C1AE0E12E17EDF12E03E8F6
:103CF0001FE320E030E84BE355E460E070E08BEE3A
:103D000094E40E94AF1568EC70E080E090E00E94BF
:103D1000BB26C0E1D0E00AE010E02AE030E040E05D
:103D200050E060E070ED82E894E40E942713219750
:103D300091F77FC164E0862E912C70E1A72EB12C03
:103D4000C12CD12C1AE0E12E17EDF12E03E81FE370
:103D500020E030E041E654E460E070E08FE294E47B
:103D60000E94AF15F7E08F2E912CA2E1AA2EB12C64
:103D7000C12CD12C1EEAE12E17E4F12E01E81FE33D
:103D800020E030E842E254E460E070EC80E694E445
:103D90004EC12AE0822E912C3AE0A32EB12CC12CE8
:103DA000D12C18EBE12E1EE1F12E05E81FE320E0F7
:103DB00030E04AEF53E460E070E088EC92E40E9467
:103DC000AF1564EF71E080E090E00E94BB2688248C
:103DD0008394912C20E030E048EC52E460E070E005
:103DE00088EC93E424C1D8E08D2E912C14E1A12E0F
:103DF000B12CC12CD12C16E6E12EFE2C06E81FE3D7
:103E000020E030E44CE155E460E070E88BEB94E4B2
:103E10000E94AF1599E1A92EB12CC12CD12C20E024
:103E200030E84BEB54E460E070E38CE195E4FFC0D4
:103E3000E3E08E2E912CF8E0AF2EB12CC12CD12CCA
:103E400016E6E12EFE2C06E81FE320E030E84BEBFF
:103E500055E460E070E08AEF94E40E94AF1562E3FD
:103E600070E080E090E00E94BB26B2E08B2E912CA7
:103E7000CDE0AC2EB12CC12CD12C20E030E04AEFAB
:103E800054E460E078E78BEB95E4D1C048E0842E01
:103E9000912C5FE0A52EB12CC12CD12C16E6E12E81
:103EA000FE2C06E81FE320E030E04AEF54E460E037
:103EB00070E88BEB94E40E94AF1564E670E080E05C
:103EC00090E00E94BB267AE0A72EB12CC12CD12C09
:103ED00020E030E44CE155E460E070E88DEE94E4DD
:103EE000A6C098EC892E912C24E1A22EB12CC12CD5
:103EF000D12C1CE5E12E1FE8F12E02E81FE320E0A3
:103F000030E447E254E460E070E08CE594E48FC074
:103F1000F2E08F2E912CA8E0AA2EB12CC12CD12C2E
:103F20001AE0E12E17EDF12E03E81FE320E030E860
:103F300044ED54E460E070E08AE794E40E94AF1539
:103F4000C3E08C2E912C18EBE12E1EE1F12E05E83A
:103F50001FE320E030E04AEF53E460E070E684EDD8
:103F600094E40E94AF151AE0812E912C09E0A02E56
:103F7000B12CC12CD12C16E6E12EFE2C06E81FE355
:103F800020E030E844ED54E460E070E08AE794E437
:103F90004EC06FE0862E912C72E0A72EB12CC12C62
:103FA000D12C1CE5E12E1FE8F12E02E81FE320E0F2
:103FB00030E84BE355E460E070E088EC94E437C00F
:103FC00034E1832E912C42E0A42EB12CC12CD12CB3
:103FD0001CE5E12E1FE8F12E02E81FE320E030E8A7
:103FE0004BEB55E460E070E08AEF94E420C084E19C
:103FF000882E912C92E0A92EB12CC12CD12C1CE53D
:10400000E12E1FE8F12E02E81FE320E030E04AE74E
:1040100055E460E070E088EC94E40E94AF1520E085
:1040200030E84BE355E460E070E08AE795E40E94F5
:10403000AF15DF91CF911F910F91FF90EF90DF901F
:10404000CF90BF90AF909F908F900895CF93DF93C4
:10405000CDB7DEB7C057D1090FB6F894DEBF0FBE9B
:10406000CDBF20E2EAEDF1E0DE01999601900D92DC
:104070002A95E1F720E1EAEFF1E0DE01AF59BF4F09
:1040800001900D922A95E1F728E1EAE0F2E0DE01E5
:10409000A75BBF4F01900D922A95E1F728E2E2E27B
:1040A000F2E0DE01119601900D922A95E1F7613060
:1040B0007105F9F08CF4672B91F5440F551F440FEF
:1040C000551FE1E0F0E0EC0FFD1FE40FF51F60A5C8
:1040D00071A582A593A526C06230710589F0633071
:1040E0007105E9F4440F551F440F551FE1E0F0E05E
:1040F0000DC0440F551F440F551FE1E6F0E006C008
:10410000440F551F440F551FE9E4F0E0EC0FFD1F6D
:10411000E40FF51F608171818281938103C060E0AB
:1041200070E0CB01C059DF4F0FB6F894DEBF0FBE71
:10413000CDBFDF91CF910C94C50F009769F0FC01C2
:1041400001900020E9F73197AF01481B590BBC01E2
:1041500082E293E00C94401680E090E008950F9383
:104160001F93CF93DF938C01C0E0D0E0F801EC0FF8
:10417000FD1F6491662371F0E0912203F091230307
:104180000190F081E02D82E293E00995892B11F0F6
:104190002196ECCFCE01DF91CF911F910F91089521
:1041A000CF93DF930E94AF20EC0182ED92E00E945A
:1041B0009D208C0F9D1FDF91CF9108952F923F92EC
:1041C0004F925F926F927F928F929F92AF92BF9227
:1041D000CF92DF92EF92FF920F931F93CF93DF93D3
:1041E000CDB7DEB728970FB6F894DEBF0FBECDBFB0
:1041F0009A8389837C836B835E834D8319012701B6
:1042000038010E94A31180911505811110921505A6
:10421000C301B2010E94D2324B015C016B01161640
:10422000170684F1B401990C880B990B0E940A338C
:104230009B01AC01C301B2010E94EE317B018C01F4
:1042400091014D815E816B817C8189819A810E947F
:10425000ED1B28960FB6F894DEBF0FBECDBFDF91E1
:10426000CF911F910F91FF90EF90DF90CF90BF9073
:10427000AF909F908F907F906F905F904F903F9006
:104280002F90089518861F82E12CF12C00E81FE37F
:1042900091014D815E816B817C8189819A810E942F
:1042A000ED1B8F819885019698878F838C159D05CE
:1042B00059F7B8CFEF92FF920F931F93CF93DF93ED
:1042C000CDB7DEB7A0970FB6F894DEBF0FBECDBF57
:1042D0007B018C0168E0CE014996FC01762F11929A
:1042E0007A95E9F73E8F2D8F38A32F8FDE015196F7
:1042F000FD0111926A95E9F7F90137FD3196F595BF
:10430000E795FE8BED8B37FF02C02F5F3F4F359552
:104310002795319521953109388F2F8B9E012F5F7D
:104320003F4F60E1F90111926A95E9F7BD010E94E2
:10433000DE20A0960FB6F894DEBF0FBECDBFDF9192
:10434000CF911F910F91FF90EF900895EF92FF9200
:104350000F931F93CF93DF93CDB7DEB7A0970FB620
:10436000F894DEBF0FBECDBF28E0EAE4F2E0DE0144
:10437000599601900D922A95E1F728E0E2E5F2E0E6
:10438000DE01519601900D922A95E1F728E0EAE5C9
:10439000F2E0DE01199601900D922A95E1F728E0EE
:1043A000E2E6F2E0DE01119601900D922A95E1F726
:1043B0006F3F7F4FA1F421E930E03E8F2D8F2AE738
:1043C00030E038A32F8F4CE350E05E8B4D8B388F5D
:1043D0002F8B48E750E05E874D87388B2F878C0105
:1043E000085E1340003981E0180714F400E911E079
:1043F000BE01675E7F4F84EF91E00E94C311BE0152
:104400006F5E7F4F84EF91E00E94C3117801F594B5
:10441000E794F594E794BE01675F7F4FC7010E9460
:10442000C311BE016F5E7F4FC7010E94C311BE0161
:10443000675F7F4FC7010E94C311BE016F5E7F4F50
:10444000C7010E94C311BE016F5F7F4F84EF91E0EF
:104450000E94C311B801110F880B990B0E94BB2653
:10446000A0960FB6F894DEBF0FBECDBFDF91CF91FF
:104470001F910F91FF90EF9008950F931F93CF938B
:10448000DF93CDB7DEB760970FB6F894DEBF0FBEEF
:10449000CDBF8C0188E0EAE6F2E0DE0119960190DA
:1044A0000D928A95E1F7BE01675F7F4FC8010E94B8
:1044B000C31188E0E2E6F2E0DE01119601900D9270
:1044C0008A95E1F7BE016F5F7F4FC8010E94C3115B
:1044D00060960FB6F894DEBF0FBECDBFDF91CF91CF
:1044E0001F910F9108951F93CF93DF932091430560
:1044F000309144052E30310504F5EB01BC0115E285
:10450000129FC001139F900D112443E250E08B5B7A
:104510009A4F0E9403358091430590914405189F5E
:10452000F001199FF00D1124E859FA4FD183C0838F
:1045300001969093440580934305DF91CF911F919D
:1045400008950F931F93CF93DF93182F062F60E0EA
:10455000809150070E94CE25C0E0D0E02091520704
:1045600030E0C217D30784F4412F60915107809146
:104570004F070E949B0F402F6091510780914F077A
:104580000E949B0F2196EACF60E0809150070E9425
:10459000CE2561E080915007DF91CF911F910F915F
:1045A0000C94CE2541E455E06CE375E080E090E0AA
:1045B0000C94FC30EF92FF920F931F93CF93DF93F5
:1045C000CDB7DEB7A0970FB6F894DEBF0FBECDBF54
:1045D000AC019B0198E0FE017996DF01892F1D92C5
:1045E0008A95E9F77E8F6D8F78A36F8FBE016F5E1E
:1045F0007F4FDB011D929A95E9F73E8B2D8B31950C
:1046000021953109388F2F8B9E012F5F3F4F80E11D
:10461000D9011D928A95E9F7E12CF12C00E81FE3FE
:10462000CF010E94DE20A0960FB6F894DEBF0FBE29
:10463000CDBFDF91CF911F910F91FF90EF90089523
:104640003FB7F8948091B9079091BA07A091BB0742
:10465000B091BC0726B5A89B05C02F3F19F0019665
:10466000A11DB11D3FBFBA2FA92F982F8827820FF8
:10467000911DA11DB11DBC01CD0142E0660F771F48
:10468000881F991F4A95D1F708958F929F92AF92F4
:10469000BF920F931F93CF93DF93CDB7DEB7A19750
:1046A0000FB6F894DEBF0FBECDBF19A2423008F49A
:1046B0004AE08E010F5D1F4F842E912CA12CB12C4E
:1046C000A50194010E945431E62FB901CA0101509D
:1046D0001109EA3014F4E05D01C0E95CD801EC9303
:1046E000232B242B252B61F7C8010E949D20A19626
:1046F0000FB6F894DEBF0FBECDBFDF91CF911F91F3
:104700000F91BF90AF909F908F900895E0912203FA
:10471000F09123030190F081E02D682F82E293E075
:104720000994CF92DF92EF92FF92CF93DF936C01C7
:10473000990FEE08FF08F7FE17C08DE20E9486234E
:10474000EC0166277727CB016C197D098E099F093B
:104750004AE00E9445238C0F9D1FDF91CF91FF906F
:10476000EF90DF90CF9008954AE0C701B601DF9146
:10477000CF91FF90EF90DF90CF900C9445236F92F4
:104780007F928F929F92AF92BF92CF92DF92EF92E1
:10479000FF920F931F93CF93DF93CDB7DEB7A09710
:1047A0000FB6F894DEBF0FBECDBF3C018A0188E092
:1047B0006E0199E1C90ED11CF601982F11929A95BC
:1047C000E9F72CE030E03A8F298F3C8F2B8F7E8FDA
:1047D0006D8F78A36F8F5E01E1E1AE0EB11CF50124
:1047E00011928A95E9F7CB010A979E8B8D8B8AE00F
:1047F00090E0861B970B988F8F8BCE0101964C0112
:1048000080E1F40111928A95E9F78BED9FE0A9E42C
:10481000B0E48D839E83AF83B88726EA2403B0017A
:10482000259F700D1124072E000C880B990B0E94F8
:104830000A332BED3FE049E450E40E94BF3320E00F
:1048400030E044E353E40E94603269877A878B87C3
:104850009C878AE5809FB001819F700D1124072EEF
:10486000000C880B990B0E940A332BED3FE049E4C2
:1048700050E40E94BF3320E030E044E353E40E9460
:1048800060326D877E878F87988BE12CF12C00E852
:104890001FE39401A301B501C6010E94DE20A0968A
:1048A0000FB6F894DEBF0FBECDBFDF91CF911F9141
:1048B0000F91FF90EF90DF90CF90BF90AF909F90BF
:1048C0008F907F906F9008956F927F928F929F92BA
:1048D000AF92BF92CF92DF92EF92FF920F931F930E
:1048E000CF93DF93CDB7DEB7A0970FB6F894DEBFB6
:1048F0000FBECDBF3C017A0188E06E0149E1C40ED4
:10490000D11CF601482F11924A95E9F77E8F6D8FE1
:1049100078A36F8F5E0151E1A50EB11CF5011192D4
:104920008A95E9F7CB0177FD0196959587950296D3
:104930009E8B8D8B77FF02C06F5F7F4F759567955C
:1049400071956195710962507109788F6F8B26EAB4
:10495000A70124038001259F100D1124CE0101968B
:104960004C0180E1F40111928A95E9F7B801012E1A
:10497000000C880B990B0E940A332BED3FE049E4B1
:1049800050E40E94BF3320E030E044E353E40E944F
:10499000603269877A878B879C8724ECA701240380
:1049A000B001259F700D1124600F711F072E000CA0
:1049B000880B990B0E940A332BED3FE049E450E449
:1049C0000E94BF3320E030E044E353E40E946032B1
:1049D0006D877E878F87988BE12CF12C00E81FE391
:1049E0009401A301B501C6010E94DE20A0960FB676
:1049F000F894DEBF0FBECDBFDF91CF911F910F9115
:104A0000FF90EF90DF90CF90BF90AF909F908F90EE
:104A10007F906F900895EF92FF920F931F93CF9323
:104A2000DF93CDB7DEB7A0970FB6F894DEBF0FBE09
:104A3000CDBFAC0198E0E2E7F2E0DE0159960190CB
:104A40000D929A95E1F798E0EAE7F2E0DE015196DF
:104A500001900D929A95E1F790E1E2E8F2E0DE0133
:104A6000119601900D929A95E1F76130710539F434
:104A70008EE190E09A8F898F8AE090E006C08AE00C
:104A800090E09A8F898F8EE190E09C8F8B8FE12C44
:104A9000F12C00E81FE39E012F5F3F4FBE016F5EC8
:104AA0007F4FCE0149960E94DE20A0960FB6F89463
:104AB000DEBF0FBECDBFDF91CF911F910F91FF9051
:104AC000EF900895AF92BF92CF92DF92EF92FF9254
:104AD0000F931F93CF93DF93CDB7DEB7A0970FB699
:104AE000F894DEBF0FBECDBF5C019B0188E0E2E71A
:104AF000F2E0DE01599601900D928A95E1F788E087
:104B0000EAE7F2E0DE01519601900D928A95E1F715
:104B1000CE0101966C0180E1F60111928A95E9F7C8
:104B200046EA4203B001439F700D1124072E000C8A
:104B3000880B990B0E940A332BED3FE049E450E4C7
:104B40000E94BF3320E030E044E353E40E9460322F
:104B500069877A878B879C876D877E878F87988BFD
:104B6000E12CF12C00E81FE39601A501BE016F5E68
:104B70007F4FCE0149960E94DE20A0960FB6F89492
:104B8000DEBF0FBECDBFDF91CF911F910F91FF9080
:104B9000EF90DF90CF90BF90AF90089590E0FC0130
:104BA000E853FE4F3491FC01E359FE4F2491FC0180
:104BB000E75AFE4FE491EE2309F43BC0332339F169
:104BC000333091F038F43130A9F0323001F584B54A
:104BD0008F7D12C0373091F03830A1F03430B9F405
:104BE000809180008F7D03C0809180008F778093BB
:104BF00080000DC084B58F7784BD09C08091B0005E
:104C00008F7703C08091B0008F7D8093B000F0E07B
:104C1000EE0FFF1FE05DFE4FA591B4918FB7F894A2
:104C2000EC91611103C020952E2301C02E2B2C93F3
:104C30008FBF0895CF93DF9390E0FC01E359FE4FBF
:104C40002491FC01E75AFE4F8491882361F190E0A2
:104C5000880F991FFC01E254FE4FC591D491FC01CD
:104C6000E05DFE4FA591B491611109C09FB7F89422
:104C70008881209582238883EC912E230BC062309B
:104C800061F49FB7F8943881822F809583238883BD
:104C9000EC912E2B2C939FBF06C08FB7F894E88120
:104CA0002E2B28838FBFDF91CF9108958E3008F08F
:104CB0008E508770806480937C0080917A0080643D
:104CC00080937A0080917A0086FDFCCF80917800F5
:104CD0002091790090E0922B08950F931F93CF932A
:104CE000DF9385E10E94562625E0AC01249FC00198
:104CF000259F900D1124BC01990F880B990B0E94E0
:104D00000A3320E030E040E85AE30E94BF338B01D1
:104D1000D82FC92F26E636E646E850E40E94BA337B
:104D2000181624F406E616E6D6E8C0E42FEB36E8BB
:104D300042ED52E4B8018D2F9C2F0E94BF332CE727
:104D40003DE04BEA53E40E94EE318B01D82FC92F8E
:104D500020E030E0A9010E945B3287FF04C000E040
:104D600010E0D0E0C0E0B8018D2F9C2FDF91CF91F3
:104D70001F910F9108958F929F92AF92BF92CF9201
:104D8000DF92EF92FF926B017C010E9420234B0186
:104D90005C01C114D104E104F104F1F00E9420236C
:104DA000DC01CB0188199909AA09BB09883E934007
:104DB000A105B10570F321E0C21AD108E108F1089C
:104DC00088EE880E83E0981EA11CB11CC114D1048A
:104DD000E104F10419F7DDCFFF90EF90DF90CF9061
:104DE000BF90AF909F908F900895CF93DF93809165
:104DF000FB040E9456268091FB040E945626EC017B
:104E000064E070E080E090E00E94BB268091FB04AB
:104E10000E945626C80FD91F64E070E080E090E041
:104E20000E94BB26CE01D7FD019695958795DF910F
:104E3000CF9108950F931F93CF93DF93CDB7DEB734
:104E400068970FB6F894DEBF0FBECDBF8C0188E027
:104E5000E2E9F2E0DE01519601900D928A95E1F7C8
:104E600088E0EAE9F2E0DE01199601900D928A9558
:104E7000E1F788E0E2EAF2E0DE01119601900D929E
:104E80008A95E1F76F3F7F4F71F481E990E09E8B47
:104E90008D8B88E790E0988F8F8B2BE430E03E87F6
:104EA0002D87988B8F87BE016F5E7F4F80E991E0E1
:104EB0000E94C311BE01675F7F4F80E991E00E94AD
:104EC000C311B801110F880B990B0E940A332DEC06
:104ED0003CEC4CE45FE30E94BF330E94D9320E9455
:104EE000BB26BE016F5F7F4F84EF91E00E94C3112C
:104EF00068960FB6F894DEBF0FBECDBFDF91CF919D
:104F00001F910F9108952FB7F8946091B507709194
:104F1000B6078091B7079091B8072FBF08951F92E9
:104F20000F920FB60F9211242F933F938F939F935D
:104F3000AF93BF938091B5079091B607A091B70743
:104F4000B091B8073091B40723E0230F2D3720F438
:104F50000196A11DB11D05C026E8230F0296A11DD3
:104F6000B11D2093B4078093B5079093B607A09323
:104F7000B707B093B8078091B9079091BA07A0918D
:104F8000BB07B091BC070196A11DB11D8093B90765
:104F90009093BA07A093BB07B093BC07BF91AF91A2
:104FA0009F918F913F912F910F900FBE0F901F9067
:104FB00018952F923F924F925F926F927F928F92AD
:104FC0009F92AF92BF92CF92DF92EF92FF920F9398
:104FD0001F93CF93DF93CDB7DEB7A0970FB6F894AA
:104FE000DEBF0FBECDBF1B012C014A0188E06E0160
:104FF00099E1C90ED11CF601982F11929A95E9F703
:1050000049E150E05A8F498F5C8F4B8F3E8F2D8F37
:1050100038A32F8F5E01E1E1AE0EB11CF5011192B4
:105020008A95E9F7C90137FD01969595879504960C
:105030009E8B8D8B37FF02C02F5F3F4F3595279595
:1050400031952195310924503109388F2F8BCE01AC
:1050500001963C0180E1F30111928A95E9F780E025
:1050600090E0A4EBB2E489839A83AB83BC838D8305
:105070009E83AF83B88724EC2003B001219F700D7D
:105080001124072E000C880B990B0E940A332BED7C
:105090003FE049E450E40E94BF3320E030E044E3C5
:1050A00053E40E9460326D877E878F87988B8201E0
:1050B00071019301A401B501C6010E94DE20A096F2
:1050C0000FB6F894DEBF0FBECDBFDF91CF911F9119
:1050D0000F91FF90EF90DF90CF90BF90AF909F9097
:1050E0008F907F906F905F904F903F902F9008959A
:1050F000CF92DF92EF92FF920F931F93E82FF92F39
:1051000005C0015011092109310961F190819623EF
:105110009417B9F305C0015011092109310911F1A2
:10512000908196239413F7CFC12CD12CE12CF12C34
:105130000AC08FEFC81AD80AE80AF80A0C151D052C
:105140002E053F0579F080818623841791F36C2D1D
:105150007D2D8E2D9F2D1F910F91FF90EF90DF9051
:10516000CF90089560E070E080E090E01F910F9193
:10517000FF90EF90DF90CF900895CF93DF93CDB75E
:10518000DEB728970FB6F894DEBF0FBECDBF789478
:1051900084B5826084BD84B5816084BD85B582603C
:1051A00085BD85B5816085BD80916E0081608093ED
:1051B0006E00109281008091810082608093810056
:1051C0008091810081608093810080918000816066
:1051D000809380008091B10084608093B1008091C1
:1051E000B00081608093B00080917A0084608093E9
:1051F0007A0080917A00826080937A0080917A00B0
:10520000816080937A0080917A00806880937A0030
:105210001092C100E0913203F091330382E0808369
:10522000E0912E03F0912F031082E0913003F09172
:10523000310380E1808310923A03E0913603F091CC
:10524000370386E08083E0913403F0913503808159
:1052500080618083E0913403F09135038081886020
:105260008083E0913403F0913503808180688083EE
:10527000E0913403F091350380818F7D808360E07D
:1052800086E00E941A2660E087E00E941A2682E0EB
:1052900090E09093E2048093E10483E090E09093A7
:1052A000E4048093E30484E090E09093E604809328
:1052B000E50485E090E09093E8048093E7040E9481
:1052C000A3111092150508E414E0612C712CC301A0
:1052D0000E942E31282F30E0213831050CF03A950C
:1052E000F80131832083FFEF6F1A7F0A075D1F4F9C
:1052F00024E06216710459F78AE590E09093F20475
:105300008093F1049093F4048093F3049093F60453
:105310008093F5049093F8048093F70488E090E07C
:105320009093DE048093DD0489E090E09093E004A4
:105330008093DF0461E088E00E941A2660E080919B
:10534000DF040E941A268DE090E09093FA04809387
:10535000F90484E190E09093FC048093FB0461E005
:105360008DE00E941A2660E084E10E941A2661E026
:1053700080914F070E941A2661E0809151070E9498
:105380001A2661E0809150070E941A2661E0809100
:1053900051070E94CE2567E08BE00E94A12260E0C9
:1053A00089E00E94A12261E08CE00E94A12260E0DD
:1053B0008FE00E94A1228FE497E00E94FA196FE02B
:1053C0008AE00E94A12261E08AE00E94A12284E199
:1053D0000E945626BC01990F880B990B6115710527
:1053E0008105910511F00E94BA2F65EE77E086E005
:1053F0000E94A20E6FED77E087E00E94A20E6BEE96
:1054000077E08AEA92E00E9473226DE57AE08CEA06
:1054100092E00E9473226AE07AE08EEA92E00E94B3
:10542000732260EF78E080EB92E00E94732262EAE0
:1054300078E082EB92E00E9473226BE478E084EBE8
:1054400092E00E94732261E379E086EB92E00E9491
:1054500073226BE979E088EB92E00E94732261EF9E
:1054600077E08AEB92E00E9473226CE477E18CEBA8
:1054700092E00E9473226CEB78E18EEB92E00E9446
:10548000732260EA78E180EC92E00E94732261EB83
:1054900077E182EC92E00E9473226BE977E184EC81
:1054A00092E00E9473228BEE97E090934C078093DA
:1054B0004B0780E090E00E94341D0E94FB1285E0C3
:1054C00090E00E942E318432D9F461E871E085E0E9
:1054D00090E00E94A21B1982BE016F5F7F4F86E0A1
:1054E00090E00E94A21B6DE170E080E090E00E94DD
:1054F000601068EE73E080E090E00E94BB26F9CF78
:105500000E944C1762E370E080E090E00E94BB26AE
:1055100062E370E080E090E00E94BB2602E010E0D1
:10552000612C712C8091DB02882331F00130110550
:10553000B9F001E010E0F4CFA30160E070E0CB012E
:105540000E94262066E970E080E090E00E94BB2681
:105550008FEF681A780A98E06916710419F7E6CF98
:105560008091DB02811110C06AE070E080E090E081
:105570000E9460108BE090E00E94341D68EC70E0A7
:1055800080E090E00E94BB2685E090E00E942E31F2
:10559000833281F58091DB0281110AC08CEB92E0AD
:1055A0000E943D2268EC70E080E090E00E94BB2603
:1055B0008091DB02811108C061E070E08091000100
:1055C000909101010E94A6218091DB02811112C0FD
:1055D0006FE070E080E090E00E94601024E130E035
:1055E00040E253E060E070E080E090E40E945A21E5
:1055F0000E94FB128091DB02811106C06BE070E01B
:1056000080E090E00E9460106DE170E080E090E04A
:105610000E9460100E9483276093E0027093E10271
:105620008093E2029093E30254E0452E512C60E413
:10563000262E66E0362E82E293E00E94A01618160F
:1056400019066CF58091E4029091E502049739F116
:105650005092E5024092E4026091E4027091E5020A
:10566000072E000C880B990B0E94601008EC10E0CC
:105670006AE070E080E090E00E94BB2601501109D2
:10568000B9F76BE070E080E090E00E94601086E087
:105690000E94880D87E00E94880D1092DB028091A5
:1056A000DB02882309F450C06FE070E080E090E0F6
:1056B0000E94601064E670E080E090E00E94BB26EB
:1056C00082E090E00E94341D68EC70E080E090E0A1
:1056D0000E94BB268091DA02882329F08091D902AA
:1056E000882309F4A3C28091DA02811104C0809159
:1056F000D9028111B9C28091DA02882321F0809108
:10570000D9028111C2C26091E4027091E502072EB4
:10571000000C880B990B0E94601008EC10E06AE006
:1057200070E080E090E00E94BB2601501109B9F7BB
:105730006BE070E080E090E00E9460101092DB026D
:105740001092DA021092D9026090E4027090E502A1
:1057500092E06916710409F44FC14CF461147104AC
:1057600091F0F1E06F16710409F4F1C058C223E022
:105770006216710409F496C184E06816710409F098
:105780004EC211E039C20E9483270091E0021091BD
:10579000E1022091E2023091E302DC01CB01801BA7
:1057A000910BA20BB30B80369A4EA105B10508F4FC
:1057B0003AC288E0E9E7F1E0DE01119601900D922E
:1057C0008A95E1F78091DB02811107C0BE016F5F0E
:1057D0007F4F8CEB92E00E94C31144E0642E712C49
:1057E0008091DB02882379F08091DB02811198C0DF
:1057F00063E170E080E090E00E94601089E090E05A
:105800000E94341D8DC040E050E061E070E080E017
:1058100090E00E9426209AE0892E912C2AE0A22E68
:10582000B12CC12CD12C18EBE12E1EE1F12E05E894
:105830001FE320E030E048E453E460E070E088ECEF
:1058400092E40E94AF158091DB028111CDCF41E03F
:1058500050E061E070E080E090E00E94262020E0CF
:1058600030E046E953E460E070E088E493E40E94AD
:10587000AF158091DB028111B7CF42E050E061E0CB
:1058800070E080E090E00E94262020E030E04AEFC7
:1058900053E460E070E086E993E40E94AF1564EFA2
:1058A00071E080E090E00E94BB268091DB028111D4
:1058B0009BCF41E050E061E070E080E090E00E942A
:1058C000262088248394912C20E030E04AE753E49A
:1058D00060E070E088EC93E40E94AF158091DB02F9
:1058E000811182CF40E050E061E070E080E090E024
:1058F0000E94262020E030E048EC52E460E070E0B6
:105900008AE793E40E94AF1564EF71E080E090E0D5
:105910000E94BB26F1E06F1A710809F061CF64CFD5
:105920000E94FB128091DB02811106C06BE070E0E7
:1059300080E090E00E9460100E9483276093E00264
:105940007093E1028093E2029093E3026CC160E104
:1059500070E080E090E00E94FC18DC01CB0105962D
:10596000A11DB11D9093DF028093DE026A50710980
:105970006430710548F47092DD026092DC0230926E
:1059800001012092000115C063E070E080E090E02A
:105990000E94FC18DC01CB010396A11DB11D909360
:1059A000DD028093DC0288EE93E090930101809306
:1059B00000016BE070E080E090E00E94FC18665F00
:1059C0007F4F8F4F9F4F0E94601000E010E080914A
:1059D000DC029091DD02081719070CF024C18091B8
:1059E000DB02811120C18091DE029091DF020E94D2
:1059F0008B0A0F5F1F4FEBCF8091D802882309F4E9
:105A000048C08091DB0281110EC16EE070E080E041
:105A100090E00E94601086E090E00E94341D84EFC8
:105A200091E00E943D228091DB028111FCC064E183
:105A300070E080E090E00E94601089E090E00E94B9
:105A4000341D03E010E08091DB02882399F064E6C6
:105A500070E080E090E00E94BB260E94E20B64E6CA
:105A600070E080E090E00E94BB268091D802811116
:105A7000DAC00AC06FEF7FEF84E195E00E946225F3
:105A80000150110901F7E3CF8091DB028111CBC0F6
:105A90000BC161E070E088EE93E00E9462250E94F5
:105AA000E20BC1C00E94F526883E93400CF4BBC0B7
:105AB00062E370E080E090E00E94BB268091DB0210
:105AC0008111B1C06EE070E080E090E00E94601053
:105AD00087E090E00E94341D8091DB028111A3C019
